{
  "contractName": "pots",
  "abi": [
    {
      "inputs": [],
      "stateMutability": "nonpayable",
      "type": "constructor"
    },
    {
      "inputs": [
        {
          "internalType": "uint256",
          "name": "",
          "type": "uint256"
        }
      ],
      "name": "groups",
      "outputs": [
        {
          "internalType": "uint256",
          "name": "id",
          "type": "uint256"
        },
        {
          "internalType": "string",
          "name": "name",
          "type": "string"
        },
        {
          "internalType": "address",
          "name": "creater",
          "type": "address"
        },
        {
          "internalType": "uint256",
          "name": "balance",
          "type": "uint256"
        }
      ],
      "stateMutability": "view",
      "type": "function",
      "constant": true
    },
    {
      "inputs": [
        {
          "internalType": "string",
          "name": "name",
          "type": "string"
        },
        {
          "internalType": "address",
          "name": "creater",
          "type": "address"
        },
        {
          "internalType": "address[]",
          "name": "walletAddresses",
          "type": "address[]"
        }
      ],
      "name": "newGroup",
      "outputs": [
        {
          "internalType": "uint256",
          "name": "",
          "type": "uint256"
        }
      ],
      "stateMutability": "nonpayable",
      "type": "function"
    },
    {
      "inputs": [
        {
          "internalType": "uint256",
          "name": "id",
          "type": "uint256"
        }
      ],
      "name": "deleteGroup",
      "outputs": [
        {
          "internalType": "bool",
          "name": "",
          "type": "bool"
        }
      ],
      "stateMutability": "nonpayable",
      "type": "function"
    },
    {
      "inputs": [
        {
          "internalType": "uint256",
          "name": "id",
          "type": "uint256"
        },
        {
          "internalType": "string",
          "name": "name",
          "type": "string"
        },
        {
          "internalType": "uint256",
          "name": "amount",
          "type": "uint256"
        }
      ],
      "name": "addCrypto",
      "outputs": [],
      "stateMutability": "payable",
      "type": "function",
      "payable": true
    },
    {
      "inputs": [
        {
          "internalType": "uint256",
          "name": "id",
          "type": "uint256"
        },
        {
          "internalType": "string",
          "name": "name",
          "type": "string"
        },
        {
          "internalType": "uint256",
          "name": "amount",
          "type": "uint256"
        }
      ],
      "name": "takeCrypto",
      "outputs": [],
      "stateMutability": "payable",
      "type": "function",
      "payable": true
    }
  ],
  "bytecode": "0x608060405234801561001057600080fd5b5060405161001d9061007e565b604051809103906000f080158015610039573d6000803e3d6000fd5b506000806101000a81548173ffffffffffffffffffffffffffffffffffffffff021916908373ffffffffffffffffffffffffffffffffffffffff16021790555061008a565b60598061155683390190565b6114bd806100996000396000f3fe60806040526004361061004a5760003560e01c8063047174541461004f57806345d88d2d1461006b57806396324bd4146100a8578063b01da286146100e8578063c15a0def14610125575b600080fd5b61006960048036038101906100649190610f7c565b610141565b005b34801561007757600080fd5b50610092600480360381019061008d9190610f53565b6104ad565b60405161009f919061106c565b60405180910390f35b3480156100b457600080fd5b506100cf60048036038101906100ca9190610f53565b61068b565b6040516100df94939291906110c2565b60405180910390f35b3480156100f457600080fd5b5061010f600480360381019061010a9190610ed4565b610773565b60405161011c91906110a7565b60405180910390f35b61013f600480360381019061013a9190610f7c565b61083e565b005b826000806002819055505b60018281548110610186577f4e487b7100000000000000000000000000000000000000000000000000000000600052603260045260246000fd5b90600052602060002090600502016003018054905060025410156102a9573373ffffffffffffffffffffffffffffffffffffffff16600183815481106101f5577f4e487b7100000000000000000000000000000000000000000000000000000000600052603260045260246000fd5b906000526020600020906005020160030160025481548110610240577f4e487b7100000000000000000000000000000000000000000000000000000000600052603260045260246000fd5b9060005260206000200160009054906101000a900473ffffffffffffffffffffffffffffffffffffffff1673ffffffffffffffffffffffffffffffffffffffff16141561028c57600190505b6002600081548092919061029f90611323565b919050555061014c565b806102b357600080fd5b610390600186815481106102f0577f4e487b7100000000000000000000000000000000000000000000000000000000600052603260045260246000fd5b9060005260206000209060050201600101805461030c906112c0565b80601f0160208091040260200160405190810160405280929190818152602001828054610338906112c0565b80156103855780601f1061035a57610100808354040283529160200191610385565b820191906000526020600020905b81548152906001019060200180831161036857829003601f168201915b505050505085610be2565b61039957600080fd5b82600186815481106103d4577f4e487b7100000000000000000000000000000000000000000000000000000000600052603260045260246000fd5b9060005260206000209060050201600401546103f091906111ac565b6001868154811061042a577f4e487b7100000000000000000000000000000000000000000000000000000000600052603260045260246000fd5b90600052602060002090600502016004018190555060008054906101000a900473ffffffffffffffffffffffffffffffffffffffff1673ffffffffffffffffffffffffffffffffffffffff166108fc849081150290604051600060405180830381858888f193505050501580156104a5573d6000803e3d6000fd5b505050505050565b60003373ffffffffffffffffffffffffffffffffffffffff1660018381548110610500577f4e487b7100000000000000000000000000000000000000000000000000000000600052603260045260246000fd5b906000526020600020906005020160020160009054906101000a900473ffffffffffffffffffffffffffffffffffffffff1673ffffffffffffffffffffffffffffffffffffffff1614610588576040517f08c379a000000000000000000000000000000000000000000000000000000000815260040161057f90611087565b60405180910390fd5b6000600183815481106105c4577f4e487b7100000000000000000000000000000000000000000000000000000000600052603260045260246000fd5b906000526020600020906005020160040154146105e057600080fd5b6001828154811061061a577f4e487b7100000000000000000000000000000000000000000000000000000000600052603260045260246000fd5b90600052602060002090600502016000808201600090556001820160006106419190610c1e565b6002820160006101000a81549073ffffffffffffffffffffffffffffffffffffffff02191690556003820160006106789190610c5e565b6004820160009055505060019050919050565b6001818154811061069b57600080fd5b90600052602060002090600502016000915090508060000154908060010180546106c4906112c0565b80601f01602080910402602001604051908101604052809291908181526020018280546106f0906112c0565b801561073d5780601f106107125761010080835404028352916020019161073d565b820191906000526020600020905b81548152906001019060200180831161072057829003601f168201915b5050505050908060020160009054906101000a900473ffffffffffffffffffffffffffffffffffffffff16908060040154905084565b600080600180816001815401808255809150500390600052602060002090600502019050600180805490506107a891906111ac565b8160000181905550848160010190805190602001906107c8929190610c7f565b50838160020160006101000a81548173ffffffffffffffffffffffffffffffffffffffff021916908373ffffffffffffffffffffffffffffffffffffffff16021790555082816003019080519060200190610824929190610d05565b506000816004018190555080600001549150509392505050565b826000806002819055505b60018281548110610883577f4e487b7100000000000000000000000000000000000000000000000000000000600052603260045260246000fd5b90600052602060002090600502016003018054905060025410156109a6573373ffffffffffffffffffffffffffffffffffffffff16600183815481106108f2577f4e487b7100000000000000000000000000000000000000000000000000000000600052603260045260246000fd5b90600052602060002090600502016003016002548154811061093d577f4e487b7100000000000000000000000000000000000000000000000000000000600052603260045260246000fd5b9060005260206000200160009054906101000a900473ffffffffffffffffffffffffffffffffffffffff1673ffffffffffffffffffffffffffffffffffffffff16141561098957600190505b6002600081548092919061099c90611323565b9190505550610849565b806109b057600080fd5b610a8d600186815481106109ed577f4e487b7100000000000000000000000000000000000000000000000000000000600052603260045260246000fd5b90600052602060002090600502016001018054610a09906112c0565b80601f0160208091040260200160405190810160405280929190818152602001828054610a35906112c0565b8015610a825780601f10610a5757610100808354040283529160200191610a82565b820191906000526020600020905b815481529060010190602001808311610a6557829003601f168201915b505050505085610be2565b610a9657600080fd5b8260018681548110610ad1577f4e487b7100000000000000000000000000000000000000000000000000000000600052603260045260246000fd5b9060005260206000209060050201600401541015610aee57600080fd5b8260018681548110610b29577f4e487b7100000000000000000000000000000000000000000000000000000000600052603260045260246000fd5b906000526020600020906005020160040154610b459190611202565b60018681548110610b7f577f4e487b7100000000000000000000000000000000000000000000000000000000600052603260045260246000fd5b9060005260206000209060050201600401819055503373ffffffffffffffffffffffffffffffffffffffff166108fc849081150290604051600060405180830381858888f19350505050158015610bda573d6000803e3d6000fd5b505050505050565b6000610bee8383610bf6565b905092915050565b600081518351148015610c16575081805190602001208380519060200120145b905092915050565b508054610c2a906112c0565b6000825580601f10610c3c5750610c5b565b601f016020900490600052602060002090810190610c5a9190610d8f565b5b50565b5080546000825590600052602060002090810190610c7c9190610d8f565b50565b828054610c8b906112c0565b90600052602060002090601f016020900481019282610cad5760008555610cf4565b82601f10610cc657805160ff1916838001178555610cf4565b82800160010185558215610cf4579182015b82811115610cf3578251825591602001919060010190610cd8565b5b509050610d019190610d8f565b5090565b828054828255906000526020600020908101928215610d7e579160200282015b82811115610d7d5782518260006101000a81548173ffffffffffffffffffffffffffffffffffffffff021916908373ffffffffffffffffffffffffffffffffffffffff16021790555091602001919060010190610d25565b5b509050610d8b9190610d8f565b5090565b5b80821115610da8576000816000905550600101610d90565b5090565b6000610dbf610dba84611133565b61110e565b90508083825260208201905082856020860282011115610dde57600080fd5b60005b85811015610e0e5781610df48882610e56565b845260208401935060208301925050600181019050610de1565b5050509392505050565b6000610e2b610e268461115f565b61110e565b905082815260208101848484011115610e4357600080fd5b610e4e84828561127e565b509392505050565b600081359050610e6581611459565b92915050565b600082601f830112610e7c57600080fd5b8135610e8c848260208601610dac565b91505092915050565b600082601f830112610ea657600080fd5b8135610eb6848260208601610e18565b91505092915050565b600081359050610ece81611470565b92915050565b600080600060608486031215610ee957600080fd5b600084013567ffffffffffffffff811115610f0357600080fd5b610f0f86828701610e95565b9350506020610f2086828701610e56565b925050604084013567ffffffffffffffff811115610f3d57600080fd5b610f4986828701610e6b565b9150509250925092565b600060208284031215610f6557600080fd5b6000610f7384828501610ebf565b91505092915050565b600080600060608486031215610f9157600080fd5b6000610f9f86828701610ebf565b935050602084013567ffffffffffffffff811115610fbc57600080fd5b610fc886828701610e95565b9250506040610fd986828701610ebf565b9150509250925092565b610fec81611236565b82525050565b610ffb81611248565b82525050565b600061100c82611190565b611016818561119b565b935061102681856020860161128d565b61102f816113f9565b840191505092915050565b6000611047602b8361119b565b91506110528261140a565b604082019050919050565b61106681611274565b82525050565b60006020820190506110816000830184610ff2565b92915050565b600060208201905081810360008301526110a08161103a565b9050919050565b60006020820190506110bc600083018461105d565b92915050565b60006080820190506110d7600083018761105d565b81810360208301526110e98186611001565b90506110f86040830185610fe3565b611105606083018461105d565b95945050505050565b6000611118611129565b905061112482826112f2565b919050565b6000604051905090565b600067ffffffffffffffff82111561114e5761114d6113ca565b5b602082029050602081019050919050565b600067ffffffffffffffff82111561117a576111796113ca565b5b611183826113f9565b9050602081019050919050565b600081519050919050565b600082825260208201905092915050565b60006111b782611274565b91506111c283611274565b9250827fffffffffffffffffffffffffffffffffffffffffffffffffffffffffffffffff038211156111f7576111f661136c565b5b828201905092915050565b600061120d82611274565b915061121883611274565b92508282101561122b5761122a61136c565b5b828203905092915050565b600061124182611254565b9050919050565b60008115159050919050565b600073ffffffffffffffffffffffffffffffffffffffff82169050919050565b6000819050919050565b82818337600083830152505050565b60005b838110156112ab578082015181840152602081019050611290565b838111156112ba576000848401525b50505050565b600060028204905060018216806112d857607f821691505b602082108114156112ec576112eb61139b565b5b50919050565b6112fb826113f9565b810181811067ffffffffffffffff8211171561131a576113196113ca565b5b80604052505050565b600061132e82611274565b91507fffffffffffffffffffffffffffffffffffffffffffffffffffffffffffffffff8214156113615761136061136c565b5b600182019050919050565b7f4e487b7100000000000000000000000000000000000000000000000000000000600052601160045260246000fd5b7f4e487b7100000000000000000000000000000000000000000000000000000000600052602260045260246000fd5b7f4e487b7100000000000000000000000000000000000000000000000000000000600052604160045260246000fd5b6000601f19601f8301169050919050565b7f6572726f723a20796f7520617265206e6f74207468652063726561746572206f60008201527f662074686520706f742121000000000000000000000000000000000000000000602082015250565b61146281611236565b811461146d57600080fd5b50565b61147981611274565b811461148457600080fd5b5056fea26469706673582212208ac0cf1aed09bb75b3e1e08e1b69ac0406d83d429e63627216d55488239b85f664736f6c634300080400336080604052348015600f57600080fd5b50603c80601d6000396000f3fe608060405200fea26469706673582212205f21735c05e91d4696542bb47b535586ce777ec6cdeb7ff359d660ba5ca31a4e64736f6c63430008040033",
  "immutableReferences": {},
  "source": "// SPDX-License-Identifier: MIT\r\npragma solidity ^0.8.1;\r\n\r\ncontract pots{\r\n\r\n    Pool pool;\r\n\r\n    constructor(){\r\n        pool = new Pool();\r\n    }\r\n\r\n    group[] public groups;\r\n\r\n    function memcmp(bytes memory a, bytes memory b)\r\n        internal\r\n        pure\r\n        returns (bool)\r\n    {\r\n        return (a.length == b.length) && (keccak256(a) == keccak256(b));\r\n    }\r\n    \r\n     function strcmp(string memory a, string memory b)\r\n        internal\r\n        pure\r\n        returns (bool)\r\n    {\r\n        return memcmp(bytes(a), bytes(b));\r\n    }\r\n\r\n    struct group{\r\n        uint256 id;\r\n        string name;\r\n        address creater;\r\n        address[] walletAddresses;\r\n        uint256 balance;\r\n    }\r\n\r\n    //new group\r\n    function newGroup(string memory name,address creater, address[] memory walletAddresses) public returns(uint256) {\r\n        group storage new_group = groups.push();\r\n        new_group.id = groups.length +1;\r\n        new_group.name = name;\r\n        new_group.creater = creater;\r\n        new_group.walletAddresses = walletAddresses;\r\n        new_group.balance = 0;\r\n        return new_group.id;\r\n    }\r\n    //delete group\r\n    function deleteGroup(uint256 id) public returns(bool){\r\n        require(groups[id].creater == msg.sender,\"error: you are not the creater of the pot!!\");\r\n        require(groups[id].balance==0);\r\n        delete groups[id];\r\n        return true;\r\n    }\r\n    //add crypto\r\n    uint256 i;\r\n    modifier verifiedUser(uint256 pot_id) {\r\n        bool check = false;\r\n        for(i=0;i<groups[pot_id].walletAddresses.length;i++){\r\n            if(groups[pot_id].walletAddresses[i]==msg.sender){\r\n                check = true;\r\n            }\r\n        }\r\n        require(check);\r\n        _;\r\n    }\r\n\r\n    function addCrypto(uint256 id, string memory name, uint256 amount ) payable public verifiedUser(id){\r\n        require(strcmp(groups[id].name,name));\r\n        groups[id].balance = groups[id].balance + amount;\r\n        //add crypto to the pool\r\n        payable(pool).transfer(amount);\r\n    }\r\n\r\n    function takeCrypto(uint256 id, string memory name, uint256 amount ) payable public verifiedUser(id){\r\n        require(strcmp(groups[id].name,name));\r\n        require(groups[id].balance>=amount);\r\n        groups[id].balance = groups[id].balance - amount;\r\n        //take crypto from pool contract\r\n        payable(msg.sender).transfer(amount);\r\n    }\r\n}\r\n\r\ncontract Pool{\r\n    fallback() external payable{\r\n\r\n    }\r\n}",
  "sourcePath": "C:/Users/hardi/Desktop/dtech/truffle/contracts/pots.sol",
  "compiler": {
    "name": "solc",
    "version": "0.8.4+commit.c7e474f2.Emscripten.clang"
  },
  "schemaVersion": "3.4.0",
  "updatedAt": "2022-02-05T19:28:30.974Z",
  "networkType": "ethereum",
  "devdoc": {
    "kind": "dev",
    "methods": {},
    "version": 1
  },
  "userdoc": {
    "kind": "user",
    "methods": {},
    "version": 1
  }
}